:020000041001E9
:1000000000000108510F0210F11602105D140210D9
:1000100000000000000000000000000000000000E0
:100020000000000000000000000000007914021031
:100030000000000000000000F5160210F916021082
:100040005D08021081080210A5080210C9080210FC
:10005000ED080210110902103509021059090210A9
:10006000FD160210011702100517021009170210E1
:100070000D17021011170210151702101917021090
:10008000F8B5AB48017801290CD00178022909D0D4
:100090000078032806D0C6210022AB4C200002F0D5
:1000A000EDFF27E0A84D6878FB210140697002212F
:1000B000002422006E1D300002F0E0FF0126310016
:1000C0002200EF1D380002F0D9FF310022002F007E
:1000D0000A37380002F0D2FF310022002F00083723
:1000E000380002F0CBFF310022002C000934200040
:1000F00002F0C4FFA549A74FA84D934C2720E070FC
:100100000026300020712000173002F0E1FF2900A6
:100110002000303002F0DCFF39002000493002F0CE
:10012000D7FF19273900FF252A00200062300090F0
:10013000009802F0A3FF009839002A0027007B37BF
:10014000380002F09BFF32212A009434200002F094
:1001500095FF8025290032009E4C2700380002F0D0
:100160008DFF802322008021A04803F045F829005C
:1001700032002700380002F081FF80232200802116
:10018000A04803F039F8290032002700380002F0B7
:1001900075FF8023220080219B4803F02DF8290061
:1001A00032002700380002F069FF802322008021FE
:1001B0009B4803F021F8290032002700380002F0A4
:1001C0005DFF8023220080219B4803F015F8290061
:1001D00032002500280002F051FF802322008021F8
:1001E0009B4803F009F8F1BD38B50C00E4B2082CC7
:1001F00002D30020C04321E004781D00EDB2012DA0
:1002000005D10278DBB28B40134303700AE0DBB206
:10021000002B07D1D2B2012A04D1027801238B40EE
:100220009A4302700078844207D001220021002006
:1002300000F07AFA012092490870002032BD10B512
:100240000C00E4B2042C02D30020C04315E01C00D3
:10025000E4B2012C05D10278DBB28B40134303706A
:100260000AE0DBB2002B07D1D2B2012A04D1027816
:1002700001238B409A430270002010BD00B501009D
:10028000C9B2632901D07F4908707E48007800BD5B
:1002900000B50100C9B2632901D09B4908709A4892
:1002A000007800BD00B50100C9B2632901D09D49A5
:1002B00008709C48007800BD00B50100C9B26329F0
:1002C00001D0994908709848007800BD00B5010038
:1002D000C9B2632901D09A4908709948007800BDD5
:1002E00000B50100C9B2632901D09B4908709A4842
:1002F000007800BD00B50100C9B2632901D09C4956
:1003000008709B48007800BD00B50100C9B26329A0
:1003100001D09D4908709C48007800BD00B50100DF
:10032000C9B2632901D0994908709848007800BD86
:10033000B33C000800B50100C9B2632901D09A4955
:1003400008709948007800BD4435000800B50100E8
:10035000C9B2632901D09A4908709948007800BD54
:1003600000B50100C9B2632901D0964908709548CB
:10037000007800BD00B50100C9B2632901D09249DF
:1003800008709148007800BD904870470815021029
:100390008F487047181502108E48704728150210B4
:1003A0008D4870478D4870478D48704700B50100F3
:1003B000C9B2632901D08B4908708A48007800BD12
:1003C00000B50100C9B2632901D087490870864889
:1003D000007800BDA437000800B50100C9B2632948
:1003E00001D0824908708148007800BD00C0001427
:1003F00000B50100C9B2632901D07D4908707C486D
:10040000007800BD80C0001400C1001400B50100D8
:10041000C9B2632901D0774908707648007800BDD9
:1004200080C1001400B50100C9B2632901D072492E
:1004300008707148007800BD80C4001400B5010048
:10044000C9B2632901D06D4908706C48007800BDBD
:1004500000C2001400B50100C9B2632901D0684987
:1004600008706748007800BD00B50100C9B20C29CA
:1004700001D0AA490870A948007800BDA848704773
:10048000B13C0008BE3C000800B5C0B2282830D0FE
:10049000412822D06C281AD06F2812D071280AD097
:1004A000732802D093281ED029E09E4801780122AB
:1004B0000A43027023E09B48017802220A4302703B
:1004C0001DE09848017804220A43027017E095481D
:1004D000017808220A43027011E092480178102244
:1004E0000A4302700BE08F48017820220A43027011
:1004F00005E08C48017840220A430270FFE700BD06
:10050000A948007870470000C03C00080100A74AD5
:100510000800C0B2105C03005B1CC9B25354C0B2E7
:1005200070470000C23C0008C43C000800B5010050
:10053000C9B2632901D0A7490870A648007800BD58
:10054000C63C0008764800780100C9B24909080095
:10055000C007C00F70470000C83C000800B501008C
:10056000C9B2632901D09F4908709E48007800BD38
:10057000BF3C000800B50100C9B2632901D09E4903
:1005800008709D48007800BDC13C0008C33C0008CD
:1005900000B50100994A89B2914201D0984908807A
:1005A0009748008800BD0000C53C000800B5010068
:1005B000C9B2632901D0934908709248007800BD00
:1005C000C73C0008C93C0008B93C0008803A000854
:1005D0009C3A0008B83A0008D83B0008D43A000812
:1005E000F03A0008BD3C0008B83C0008BB3C0008DD
:1005F000B73C0008B43C0008B53C0008B63C000815
:10060000BA3C0008FEB5002633003300444B1C0002
:100610005B1C0193C9B2002920D0012920D00229F6
:1006200020D0032920D0042920D0052920D0062954
:1006300020D0072920D0082920D0092921D00A2933
:1006400022D00B2923D00C2924D00D2925D00E2906
:1006500026D00F2927D0632928D029E0310028E0AF
:10066000012126E0022124E0032122E0042120E0F0
:1006700005211EE006211CE007211AE01C003100C4
:1006800017E01C00012114E01C00022111E01C00F5
:1006900003210EE01C0004210BE01C00052108E0F2
:1006A0001C00062105E01C00072102E0632100E098
:1006B00031006B46187017000800C0B2632823D1C0
:1006C00035000BE03B00DBB2684602784E4829005B
:1006D000C9B2415C2000FFF787FD6D1C2800C0B245
:1006E0000728EFD334002000C0B2042814D23B0006
:1006F000DBB26846027845482100C9B2415C0198E6
:10070000FFF772FD641CEEE73B00DBB2684602783F
:10071000C9B22000FFF768FDF7BD0000B33C000838
:1007200044350008B03C0008F8B500242300384DDB
:10073000C9B2002908D0012908D0022908D003290C
:1007400008D0632908D009E0210008E0012106E073
:10075000022104E0032102E0042100E0042107005B
:1007600016000800C0B204280ED12000C0B2042830
:1007700012D23300DBB23A00D2B22100C9B2280053
:10078000FFF75DFD641CF0E73300DBB23A00D2B244
:10079000C9B22800FFF753FDF1BD1E49088070471C
:1007A0001D49088070470000B02B00085C3B000822
:1007B0001A4B1870080080B2000A98705970DA70ED
:1007C0007047164B1871080080B2000A9871597171
:1007D000DA717047B13C000811490880704711492F
:1007E00008807047BC3C000881B00F48007800903A
:1007F000009801B070470000CA3C00080F270000B5
:100800006A3C0008CF3C000830160210EC160210BB
:100810004E350008643C0008623C0008983B000824
:10082000663C0008683C0008AF3C000800B50100C9
:100830000020C9B2002950D0012950D0022950D03F
:10084000032950D0042950D0052950D0302950D048
:10085000312950D0322950D0332950D0342950D0AA
:10086000352950D0A32950D0B12956D0B22950D023
:10087000B32950D0B42952D0B62952D0B82952D079
:10088000B92952D0BB2952D0BC2958D0BD2958D043
:10089000BE296CD0C02956D0C12956D0C22956D005
:1008A000C32956D0C42956D0C52956D0C62956D0FA
:1008B000C72956D0C82956D0C92956D0D32958D0CF
:1008C000D42958D0D72936D0DF2936D0E4291ED0F4
:1008D000F0292ED0F42950D051E003204FE002201F
:1008E0004DE002204BE0012049E0012047E00120DB
:1008F00045E0012043E0192041E019203FE01920A4
:100900003DE019203BE0192039E0322037E0042097
:1009100035E0082033E0042031E001202FE0012001
:100920002DE010202BE0042029E0012027E0042006
:1009300025E0032023E0012021E00B201FE002201E
:100940001DE001201BE0012019E01A2017E0012022
:1009500015E01A2013E0012011E01A200FE0012019
:100960000DE003200BE0012009E01A2007E0012040
:1009700005E0012003E0012001E00420FFE7C0B210
:1009800000BD0000F8B50C002070C0B200287BD07C
:10099000012800D18BE0022800D18FE0032800D18C
:1009A00097E0042800D19FE0052800D1A7E0302877
:1009B00000D1AFE0312800D1BAE0322800D1BEE04A
:1009C000332800D1C2E0342800D1C6E0352800D158
:1009D000CAE0A32800D1CEE0B02800D1D8E0B128E9
:1009E00000D1F8E0B22800D1DDE0B32800D1E1E089
:1009F000B42800D11DE1B62800D121E1B82800D1EA
:100A000025E1B92800D1F1E0BB2800D12EE1BC28B6
:100A100000D134E1BD2800D1CEE1BE2800D1D2E121
:100A2000C02800D135E1C12800D148E1C22800D159
:100A30004CE1C32800D15FE1C42800D163E1C5289F
:100A400000D176E1C62800D17AE1C72800D18DE136
:100A5000C82800D191E1C92800D1A4E1D32800D150
:100A6000B8E1D42800D1C5E1D72800D1D4E0DF28EF
:100A700000D1D4E0E42800D184E0F02800D1BCE02B
:100A8000F42800D1BDE1CEE10322CA49651C28004B
:100A900002F0EAFBA078A070002200210120FFF7FD
:100AA00043FE002263210120FFF7ACFDBBE10222DF
:100AB000CC49641C200002F0D7FBB4E10222CA49F1
:100AC000651C280002F0D0FBA0788007800FA07082
:100AD000A9E10122C549651C280002F0C5FB607828
:100AE0008007800F60709EE101252A00C049661CC6
:100AF000300002F0B9FB60780540657093E1012594
:100B00002A00C949661C300002F0AEFB607805403F
:100B1000657088E10122C549651C280002F0A4FB2C
:100B200060780007000F60700020C14908707AE10A
:100B30001922C049641C200002F096FB73E11922BF
:100B4000BD49641C200002F08FFB6CE11922BB49F7
:100B5000641C200002F088FB65E11922B849641C7E
:100B6000200002F081FB5EE11922B649641C2000DE
:100B700002F07AFB57E12922B349641C200002F0FD
:100B800073FB50E10422B149200002F06DFB4AE101
:100B900003228849651C280002F066FBA0784121E9
:100BA0000140A1703FE10822A949641C200002F025
:100BB0005BFB38E1A749088800280BD002252A00F2
:100BC000661C300002F050FB2A00A349E41C200000
:100BD00002F04AFB27E101252A00A049661C3000EB
:100BE00002F042FB6078054065701CE101229C49DF
:100BF000641C200002F038FB15E1042100222500CE
:100C0000280002F03BFA97490878002803D0032215
:100C1000200002F029FB06E10020207003E1924948
:100C20000878002804D00A22641C200002F01CFB73
:100C3000F9E001228D49641C200002F015FBF2E06E
:100C400010228B49641C200002F00EFBEBE0894867
:100C500001886170008880B2000AA070864801880F
:100C6000E170008880B2000A2071DCE083490878D6
:100C7000002803D00422200002F0F6FAD3E08048D6
:100C800001886170008880B2000A8007800FA07020
:100C9000C9E00122474D2E000D363100671C380097
:100CA00002F0E2FA687BFD2101403170687BFB2194
:100CB0000140317060784007400F6070B3E01A2245
:100CC0007049641C200002F0CFFAACE00122394DDB
:100CD0002E000E363100671C380002F0C5FAA87BE2
:100CE000FD2101403170A87BFB210140317060780B
:100CF0004007400F607096E01A226349641C200090
:100D000002F0B2FA8FE001222A4D2E000F36310098
:100D1000671C380002F0A8FAE87BFD210140317021
:100D2000E87BFB210140317060784007400F607024
:100D300079E01A225549641C200002F095FA72E00D
:100D400001221C4D2E0010363100671C380002F0C5
:100D50008BFA287CFD2101403170287CFB21014069
:100D6000317060784007400F60705CE003224849B2
:100D7000641C200002F078FA55E001220D4D2E008F
:100D800011363100671C380002F06EFA687CFD21D4
:100D900001403170687CFB21014031706078400770
:100DA000400F60703FE01A223A49641C200002F0B4
:100DB0005BFA38E04435000801223749641C200002
:100DC00002F052FA2FE001223449641C200002F0A4
:100DD0004BFA28E001223249641C200002F044FA58
:100DE00021E000BF47350008493500084B350008B1
:100DF0004C35000801222B49641C200002F034FA13
:100E000011E00422284D29001331200002F02CFAB1
:100E1000687D432806D12549072002F037FB0120D1
:100E2000FFF7CEFAFFE7F1BD4D3500084E3500085B
:100E3000B13C00085B350008743500088D350008AA
:100E4000A6350008BF3500081839000857350008D6
:100E5000983B0008643C0008623C000850350008DC
:100E6000AF2B0008A4230008A8230008B03C00080A
:100E70004C3B0008663C0008683C0008AE3C00089B
:100E80006A3C0008803A00089C3A0008B83A00081A
:100E9000D83B0008D43A0008AF3C0008D33C000817
:100EA000D13C0008D23C000844350008E41402108C
:100EB00070B50C00C0B202283DD003284DD00428E4
:100EC0005DD005286DD0A3287DD0B02800D1CCE01E
:100ED000B12800D1D8E0B52800D1F0E0B72800D182
:100EE000EEE0BA2800D1F2E0BB2800D1F3E0BD2843
:100EF00000D1C1E1C02800D1FAE0C12800D10CE145
:100F0000C22800D11AE1C32800D12CE1C42800D1A5
:100F10003AE1C52800D14CE1C62800D15AE1C728E2
:100F200000D16CE1C82800D180E1C92800D192E14C
:100F3000E4285BD0B0E1032A0ED1A0788007800FAF
:100F4000A070002C08D00222611CB54C200002F0D9
:100F50008BF90120FFF766FA9EE1022A0ED1607834
:100F60008007800F6070002C08D00122611CAD4CFE
:100F7000200002F079F90120FFF760FA8CE1022AE3
:100F80000ED1002C0CD0012260781100014061705C
:100F9000611CA54C200002F067F90120FFF736FA2A
:100FA0007AE1022A0ED101226078110001406170BD
:100FB000002C07D0611CB94C200002F055F901202B
:100FC000FFF716FA68E1332A0FD160780100C907EC
:100FD000C90F6170002C08D03222611CB04C200077
:100FE00002F042F90120FFF735FA55E1042A3BD11E
:100FF000002C39D0A078032836D1002630003100EB
:1010000004E00A00D2B2A25C8018491C0A00D2B2E5
:10101000032AF6DB401CA34DF421E9740321297552
:10102000E178C0B288420CD102F0D3FB602808DB23
:10103000432068759C489D49088001209C490870A0
:1010400004E07F206875012099490870300005E0B0
:101050003100C9B26918C97C4018761C3100C9B288
:101060000329F5DB401CA87516E1022A0BD1607834
:10107000412101406170002C05D00122611C8D4C82
:10108000200002F0F1F807E1022A17D1012560786B
:10109000290001406170002C05D02A00611C864C9B
:1010A000200002F0E1F87F48007B2900084202D0CE
:1010B0008248057002E0002080490870ECE0EBE017
:1010C000102100227E4C200001F0D8FFE4E060787F
:1010D0007C490870E0E0022A09D16078BB2803D17E
:1010E00000207949087002E0012077490870D3E0B8
:1010F000022A11D1A0788006800EA070002C0BD09F
:101100000120617802000A4066494B7BFE241C40A6
:1011100022434A736D490870BEE01B2A0DD1002C92
:101120000BD01A22611C6A4C200002F09DF80120AD
:101130000100684A117065490870ADE0022A11D1BA
:10114000A0788006800EA070002C0BD00120617862
:1011500002000A4053498B7BFE241C4022438A73C1
:101160005D49087098E01B2A0DD1002C0BD01A2283
:10117000611C5A4C200002F077F801200100584A07
:1011800011705549087087E0022A11D1A0788006B5
:10119000800EA070002C0BD00120617802000A4064
:1011A0004049CB7BFE241C402243CA734D49087042
:1011B00072E01B2A0DD1002C0BD01A22611C4A4C64
:1011C000200002F051F801200100484A1170454901
:1011D000087061E0022A11D1A0788006800EA0700C
:1011E000002C0BD00120617802000A402D490B7CB5
:1011F000FE241C4022430A743D4908704CE0042A36
:101200000DD1002C0BD00322611C3A4C200002F0BF
:101210002BF801200100384A1170354908703BE075
:10122000493500084B3500084C350008022A11D119
:10123000A0788006800EA070002C0BD00120617871
:1012400002000A4017494B7CFE241C4022434A748A
:101250009349087020E01B2A0DD1002C0BD01A22D4
:10126000611C904C200001F0FFFF012001008E4A1C
:1012700011708B4908700FE0002C0CD00120FFF793
:1012800079F860788007800F60700122611C874CBC
:10129000200001F0E9FFFFE770BD00BF4D350008F9
:1012A000D835000844350008AA550000001500088C
:1012B000B23C00084F35000850350008BB3C000820
:1012C0005C3B0008B02B0008AE3C0008BE3C0008A8
:1012D000803A0008BF3C0008C03C00089C3A000867
:1012E000C13C0008C23C0008B83A0008C33C0008F2
:1012F000C43C0008D83B0008C53C000810B50300FA
:1013000000242000032A02D269490B7809E0032A4D
:1013100007D1684A1278C9B2914202D164490B7868
:10132000FFE7DBB2002B5AD0012B5AD0022B5AD048
:10133000032B5AD0042B5AD0052B5AD0092B5AD044
:10134000302B5AD0312B5AD0322B5AD0332B5AD083
:10135000342B5AD0352B5AD0A32B5AD0B12B5ED078
:10136000B22B58D0B32B58D0B42B5AD0B62B5AD05E
:10137000B82B5AD0B92B5AD0BB2B5AD0BC2B60D02B
:10138000BD2B60D0BE2B7AD0BF2B7AD0C02B5CD0C7
:10139000C12B5CD0C22B5CD0C32B5CD0C42B5CD0E7
:1013A000C52B5CD0C62B5CD0C72B5CD0C82B5CD0C7
:1013B000C92B5CD0CA2B5CD0CB2B5CD0D02B66D099
:1013C000D22B67D0D32B5ED0D42B5ED0D52B54D06C
:1013D000D72B32D0DF2B32D0F02B2CD05DE0032086
:1013E0005BE0022059E0022057E0012055E0012097
:1013F00053E0012051E002204FE001204DE0192090
:101400004BE0192049E0192047E0192045E0192058
:1014100043E0292041E008203FE004203DE0012096
:101420003BE0012039E0102037E0042035E00120C6
:1014300033E0012031E003202FE001202DE00B20DC
:101440002BE0022029E0012027E0012025E01A20DE
:1014500023E0012021E01A201FE001201DE01A20D6
:101460001BE0012019E0032017E0012015E01A20FD
:1014700013E0012011E01A200FE001200DE001200F
:101480000BE0012009E0012007E0012005E00A4807
:10149000007802E009480078FFE7C0B210BD000004
:1014A000C63C0008D43A0008C73C0008AF3C00081E
:1014B000CD3C0008CC3C00083AA401103BA401102C
:1014C000F7B584B01C0000276846007C20702020FF
:1014D000019000200090C34E3500009A0199280029
:1014E00001F0CCFD6846007C3070751C6846007DBC
:1014F00028700C98032821D2BB4807780078207008
:101500000C98022803D16846007DB8490870B84895
:101510000178FF2902D10021017002E00178491C05
:10152000017020200290002001900096019A0299FB
:10153000009801F0A3FD0098377078E00C9803281C
:1015400075D16846077E0221300002F069F9FFB2CA
:10155000B8424ED120200190002000903700009A20
:101560000199380001F08AFDA0486946097D02789A
:10157000914211D19C490F78097821706946097D03
:1015800001709B480178FF2902D1002101702EE0F3
:101590000178491C01702AE001786A46127D914267
:1015A00016D269460F7C6946097C8F4A11706946DC
:1015B000097D01708E480178FF2902D10021017058
:1015C00002E00178491C017001208A4908700EE090
:1015D00069460F7C6946097C834A11706946097D1A
:1015E000017000208249087001208249087037701C
:1015F0001DE07D480778007820706846007D7B49B3
:1016000008707B480178FF2902D10021017002E0B7
:101610000178491C01702020029000200190009662
:10162000019A0299009801F029FD009837707148DD
:101630000078012801D000F079FDFFB2002F00D121
:1016400099E0012F00D1B7E0022F00D1D4E0032FA1
:1016500000D1EAE0042F00D100E1052F00D118E10C
:10166000092F00D130E1302F00D145E1312F00D1D9
:101670005EE1322F00D16FE1332F00D180E1342FB2
:1016800000D191E1352F00D1A2E1A32F00D1B3E128
:10169000B02F00D1DAE1B12F00D145E2B22F00D155
:1016A000ECE1B32F00D11FE2B42F00D1D0E2B52F6F
:1016B00000D153E2B62F00D1DEE2B82F00D1EFE225
:1016C000B92F00D15EE2BB2F00D105E3BC2F00D1C2
:1016D00019E3BD2F01D100F0A9FCBE2F01D100F00C
:1016E000B9FCBF2F00D19DE1C02F00D122E3C12F53
:1016F00000D145E3C22F00D176E3C32F00D199E397
:10170000C42F00D1AAE3C52F00D1CDE3C62F00D14D
:10171000DEE3C72F01D100F001FCC82F01D100F09A
:1017200011FCC92F01D100F033FCCA2F01D100F008
:1017300043FCCB2F01D100F065FCD12F01D100F08B
:10174000DDFCD32F01D100F099FCD42F01D100F0A2
:10175000A9FCD52F01D100F0B9FCD72F00D13CE274
:10176000D82F00D160E2DF2F00D146E2F02F00D168
:101770001CE200F0CEFC0322CA49671C380001F0CD
:1017800073FDA078A0701A48007820710422611CB3
:10179000280001F069FD0521300002F041F8607178
:1017A000002200210120FEF7BFFF0022632101205B
:1017B000FEF728FF00F0BAFC0222BB49671C380084
:1017C00001F052FD0A480078E0700322611C2800F5
:1017D00001F04AFD0421300002F022F8207100F0EF
:1017E000A5FC00BF403A0008CD3C0008CC3C0008F6
:1017F000CB3C0008CE3C00080222AC49671C3800F4
:1018000001F032FD0322A07811000140A170A84828
:101810000078E070611C280001F026FD04213000F2
:1018200001F0FEFF207100F081FC0122A149671C3C
:10183000380001F019FD60788007800F60709C48C7
:101840000078A0700222611C280001F00DFD032128
:10185000300001F0E5FFE07000F068FC01273A007D
:101860009549601C0090009801F0FEFC009860789B
:10187000074067708E480078A0700222611C280023
:1018800001F0F2FC0321300001F0CAFFE07000F02B
:101890004DFC01273A008949601C0090009801F036
:1018A000E3FC009860780740677081480078A0707A
:1018B0000222611C280001F0D7FC0321300001F056
:1018C000AFFFE07000F032FC7D48018861700322B8
:1018D000008880B2000A11000140A17074480078AD
:1018E000E070611C280001F0BFFC0421300001F011
:1018F00097FF207100F01AFC01227249671C380022
:1019000001F0B2FC60780007000F607000206E49A3
:10191000087067480078A0700222611C280001F05E
:10192000A3FC0321300001F07BFFE07000F0FEFB20
:1019300019226649671C380001F096FC5C48007863
:10194000A0761A22611C280001F08EFC1B213000B9
:1019500001F066FFE076E9E319225D49671C380073
:1019600001F082FC52480078A0761A22611C2800FF
:1019700001F07AFC1B21300001F052FFE076D5E344
:1019800019225449671C380001F06EFC4848007861
:10199000A0761A22611C280001F066FC1B21300091
:1019A00001F03EFFE076C1E319224B49671C380085
:1019B00001F05AFC3E480078A0761A22611C2800EB
:1019C00001F052FC1B21300001F02AFFE076ADE36C
:1019D00019224249671C380001F046FC344800785F
:1019E000A0761A22611C280001F03EFC1B21300069
:1019F00001F016FFE07699E329223949671C380087
:101A000001F032FC2A4800782A2160542A22611C05
:101A1000280001F029FC2B21300001F001FF2B21CF
:101A2000605483E32F4800880A2101F02DFF607085
:101A30001F480078A0700222611C280001F014FCED
:101A40000321300001F0ECFEE0706FE30322154942
:101A5000671C380001F008FCA07841210140A1700A
:101A60001348007820710422611C280001F0FCFB5F
:101A70000521300001F0D4FE607157E30822CA4905
:101A8000671C380001F0F0FB0948007860720922F9
:101A9000611C280001F0E8FB0A21300001F0C0FEC3
:101AA000A07243E344350008473500084935000873
:101AB000CB3C00084B3500084C3500084D3500087C
:101AC0006A3C00084E350008B13C00085B35000850
:101AD000743500088D350008A6350008BF350008AC
:101AE00018390008603C0008B049088800281AD05E
:101AF00002273A00601C0090009801F0B5FB0098A6
:101B00003A00AB49E71C380001F0AEFBA948007869
:101B100060710522611C280001F0A6FB062130003F
:101B200001F07EFEA07101E301273A00A249601C8A
:101B30000090009801F098FB00986078074067706B
:101B40009C480078A0700222611C280001F08CFBE8
:101B50000321300001F064FEE070E7E201229749C2
:101B6000671C380001F080FB92480078A0700222C8
:101B7000611C280001F078FB0321300001F050FEC9
:101B8000E070D3E201228E49671C380001F06CFB43
:101B900088480078A0700222611C280001F064FBD4
:101BA0000321300001F03CFEE070BFE28549087877
:101BB000002811D00322671C380001F055FB7D4836
:101BC000007820710422611C280001F04DFB0521E2
:101BD000300001F025FE6071A8E2002060707548B9
:101BE0000078A0700222611C280001F03DFB032157
:101BF000300001F015FEE07098E273490878002883
:101C000011D00A22671C380001F02EFB69480078C9
:101C1000E0720B22611C280001F026FB0C21300031
:101C200001F0FEFD207381E201226849671C380043
:101C300001F01AFB5F480078A0700222611C2800A6
:101C400001F012FB0321300001F0EAFDE0706DE2CB
:101C500001225F49671C380001F006FB55480078F7
:101C6000A0700222611C280001F0FEFA032130005E
:101C700001F0D6FDE07059E210225649671C380089
:101C800001F0F2FA4B48007860741122611C2800C0
:101C900001F0EAFA1221300001F0C2FDA07445E221
:101CA0004D4801886170008880B2000AA0704B48DE
:101CB0000188E170008880B2000A20713D480078F8
:101CC00060710522611C280001F0CEFA0621300067
:101CD00001F0A6FDA07129E241490878002811D041
:101CE0000122671C380001F0BFFA32480078A0706A
:101CF0000222611C280001F0B7FA0321300001F034
:101D00008FFDE07012E2374801886170032200887D
:101D100080B2000A11000140A17026480078E070EE
:101D2000611C280001F0A0FA0421300001F078FDC8
:101D30002071FBE10122E74F38000D300190601C5B
:101D400000900199009801F08FFA0098787BFD21AE
:101D500001407973787BFB210140797360784007FB
:101D6000400F607013480078A0700222611C2800A8
:101D700001F07AFA0321300001F052FDE070D5E164
:101D80001A22EB49671C380001F06EFA0948007806
:101D9000E0761B22611C280001F066FA1C2130004D
:101DA00001F03EFD2077C1E1983B0008643C00084B
:101DB000623C0008CB3C000850350008D53C0008C8
:101DC000AF2B0008A4230008A8230008D63C000875
:101DD000B03C00084C3B0008663C0008683C00082A
:101DE000AE3C00086A3C00080122BA4F38000E30B1
:101DF0000190601C00900199009801F035FA00985C
:101E0000B87BFD210140B973B87BFB210140B97358
:101E100060784007400F6070C6480078A0700222CA
:101E2000611C280001F020FA0321300001F0F8FCC9
:101E3000E0707BE11A22C049671C380001F014FAF7
:101E4000BC480078E0761B22611C280001F00CFAE7
:101E50001C21300001F0E4FC207767E101229D4F56
:101E600038000F300190601C00900199009801F03B
:101E7000FBF90098F87BFD210140F973F87BFB2109
:101E80000140F97360784007400F6070A9480078FE
:101E9000A0700222611C280001F0E6F90321300045
:101EA00001F0BEFCE07041E11A22A449671C380031
:101EB00001F0DAF99F480078E0761B22611C2800C7
:101EC00001F0D2F91C21300001F0AAFC20772DE1AD
:101ED0000122804F380010300190601C0090019961
:101EE000009801F0C1F90098387CFD210140397457
:101EF000387CFB210140397460784007400F6070E6
:101F00008C480078A0700222611C280001F0ACF916
:101F10000321300001F084FCE07007E103228849CE
:101F2000671C380001F0A0F9824800782071042273
:101F3000611C280001F098F90521300001F070FCC7
:101F40006071F3E00122634F380011300190601C92
:101F500000900199009801F087F90098787CFD21A4
:101F600001407974787CFB210140797460784007E6
:101F7000400F60706F480078A0700222611C28003A
:101F800001F072F90321300001F04AFCE070CDE06D
:101F90001A226C49671C380001F066F96548007820
:101FA000E0761B22611C280001F05EF91C21300044
:101FB00001F036FC2077B9E00122464F380012309C
:101FC0000190601C00900199009801F04DF9009873
:101FD000B87CFD210140B974B87CFB210140B97483
:101FE00060784007400F607052480078A07002226D
:101FF000611C280001F038F90321300001F010FCC9
:10200000E07093E01A225049671C380001F02CF967
:1020100048480078E0761B22611C280001F024F972
:102020001C21300001F0FCFB20777FE001224749B2
:10203000671C380001F018F93E480078A0700222B1
:10204000611C280001F010F90321300001F0E8FBC9
:10205000E0706BE001223E49671C380001F004F992
:1020600034480078A0700222611C280001F0FCF8BE
:102070000321300001F0D4FBE07057E00122354924
:10208000671C380001F0F0F82A480078A07002229E
:10209000611C280001F0E8F80321300001F0C0FBCA
:1020A000E07043E001222C49671C380001F0DCF8A5
:1020B00020480078A0700222611C280001F0D4F8AA
:1020C0000321300001F0ACFBE0702FE00122234936
:1020D00002E000BF44350008671C380001F0C4F876
:1020E00014480078A0700222611C280001F0BCF89E
:1020F0000321300001F094FBE07017E001F044FC94
:1021000017490A78521C641C0100200001F0ACF849
:102110000CE00848007860700122611C280001F082
:10212000A3F80221300001F07BFBA07007B0F0BDE6
:10213000803A0008CB3C00089C3A0008B83A0008F6
:10214000D83B0008D43A0008F03A0008AF3C000839
:10215000D33C0008D13C0008D23C0008D43C000825
:102160004EA40110FEB505000C0016000020202131
:1021700000200190B84F0097019A009800F07EFF70
:1021800000983D702800C0B202285ED0032800D11C
:102190009EE0042800D1DCE0052800D11AE1A32844
:1021A00000D15FE1B02800D19DE1B12800D1D8E194
:1021B000B52800D12EE2B72800D12DE2BA2800D1EF
:1021C00068E2BB2800D1A0E2BD2801D100F09FFE4B
:1021D000BF2800D1DEE2C02800D15AE3C12800D1D7
:1021E000A8E3C22800D1E4E3C32801D100F024FC15
:1021F000C42801D100F05FFCC52801D100F0B0FC7B
:10220000C62801D100F0EBFCC72801D100F02AFD5F
:10221000C82801D100F065FDC92801D100F0B6FD44
:10222000CA2801D100F0F1FDCB2801D100F030FE29
:10223000D02801D100F0AEFED22801D100F0B7FEC7
:10224000DC2800D1E0E200F0C0FE052E3ED1002CDB
:102250003CD0A019801E0078694608707F4800783D
:1022600069460978884205D3684600787B49097831
:10227000884227D203200290611C781C0190029AA8
:10228000019800F0F1FF01983100491EC9B23800F1
:1022900001F0C6FAA119491E0978C0B2884211D1CD
:1022A000A0788007800FA0700222611C6C4C200077
:1022B00000F0DAFF0120FEF7B5F8D34805700120E1
:1022C000D2490870684600786449087000F07DFEC5
:1022D000042E3CD1002C3AD0A019801E007869460B
:1022E00008705E48007869460978884205D36846D8
:1022F00000785A490978884225D20222611C781C4C
:102300000190019800F0B0FF01983100491EC9B258
:10231000380001F085FAA119491E0978C0B2884237
:1023200011D160788007800F607001263200611C37
:10233000B74C200000F098FF0120FEF77FF8B2486C
:102340000570B2480670684600784449087000F08D
:102350003CFE042E3CD1002C3AD0A019801E0078FF
:10236000694608703D48007869460978884205D377
:102370006846007839490978884225D20222611CD2
:10238000781C0190019800F06FFF01983100491E00
:10239000C9B2380001F044FAA119491E0978C0B247
:1023A000884211D10126607831000140617032000D
:1023B000611CB74C200000F057FF0120FEF726F803
:1023C0009148057091480670684600782349087066
:1023D00000F0FBFD042E3CD1002C3AD0A019801E49
:1023E0000078694608701D48007869460978884277
:1023F00005D36846007819490978884225D2022217
:10240000611C781C0190019800F02EFF01983100AA
:10241000491EC9B2380001F003FAA119491E097812
:10242000C0B2884211D1012660783100014061704C
:102430003200611CCD4C200000F016FF0120FDF79A
:10244000D7FF7148057071480670684600780349E7
:10245000087000F0BAFD00BF403A0008CC3C00080C
:1024600049350008352E3CD1002C3AD0A019801EE9
:10247000007869460870BE48007869460978884245
:1024800005D368460078BA490978884225D23322B4
:10249000611C781C0190019800F0E6FE0198310063
:1024A000491EC9B2380001F0BBF9A119491E0978CB
:1024B000C0B2884211D101266078310001406170BC
:1024C0003222611CAB4C200000F0CEFE0120FDF753
:1024D000C1FF4D4805704D48067068460078A44914
:1024E000087000F072FD042E39D1002C37D0A019ED
:1024F000801E0078694608709D4800786946097812
:10250000884205D36846007899490978884222D2E2
:102510000222611C781C0190019800F0A5FE019830
:102520003100491EC9B2380001F07AF9A119491EDB
:102530000978C0B288420ED101266078310001408E
:1025400061703200611CC84C200000F08DFE2E48E6
:1025500005702E480670684600788549087000F0BE
:1025600034FD042E4ED1002C37D0A019801E0078E7
:10257000694608707E48007869460978884205D324
:10258000684600787A490978884222D20222611C82
:10259000781C0190019800F067FE01983100491EF7
:1025A000C9B2380001F03CF9A119491E0978C0B23E
:1025B00088420ED1012660783100014061703200FE
:1025C000611CAA4C200000F04FFE0F4805700F4818
:1025D000067068460078664908700120A449097BA6
:1025E0000200114207D0A3490870FA2189000D208A
:1025F00001F040FB06E000209E49087000210D20FC
:1026000001F038FB00F0E1FCCD3C0008CE3C0008B6
:102610004B35000800F0D9FC042E37D1002C35D002
:10262000A019801E007869460870514800786946F4
:102630000978884205D3684600784D490978884270
:1026400020D20222611C781C0190019800F00CFE3F
:1026500001983100491EC9B2380001F0E1F8A11912
:10266000491E0978C0B288420CD110210020019087
:10267000A94C019A200000F001FDA8480570012036
:10268000A7490870684600783949087000F09DFC39
:102690004C350008042E36D1002C34D0A019801EF1
:1026A000007869460870324800786946097888429F
:1026B00005D3684600782E49097888421FD2022245
:1026C000611C781C0190019800F0CEFD019831004A
:1026D000491EC9B2380001F0A3F8A119491E0978B2
:1026E000C0B288420BD10120617802000A406270BA
:1026F00061788C4A117089490D7089490870684663
:1027000000781B49087000F060FC042E40D1002CBA
:102710003ED0A019801E00786946087014480078E1
:1027200069460978884205D36846007810490978D7
:10273000884229D20222611C781C0190019800F085
:1027400093FD01983100491EC9B2380001F068F8C4
:10275000A119491E0978C0B2884215D16078BB28FA
:102760000AD100207049087009E000BF4D3500080B
:10277000CC3C0008D835000801206B490870674838
:10278000057001206649087068460078674908703E
:1027900000F01BFC042E36D1002C34D0A019801E72
:1027A000007869460870614800786946097888426F
:1027B00005D3684600785D49097888421FD2032214
:1027C000611C7D1C280000F04FFD3100491EC9B27C
:1027D000380001F025F8A119491E0978C0B28842D5
:1027E0000DD16320FDF7F8FD012808D1504861782C
:1027F0000A224A43028001880D2001F03BFA684614
:1028000000784A490870E0E3042E41D1002C3FD003
:10281000A019801E0078694608704448007869460F
:102820000978884205D3684600784049097888428B
:102830002AD20222611C781C0190019800F014FD3C
:1028400001983100491EC9B2380000F0E9FFA11912
:10285000491E0978C0B2884216D1607800280BD191
:102860000020B64908700AE04F35000850350008CE
:1028700044350008BB3C00080120B04908702748D7
:1028800005700120264908706846007827490870BD
:102890009BE3042E3FD1002C3DD0A019801E007870
:1028A000694608702148007869460978884205D34E
:1028B000684600781D490978884228D20222611CA6
:1028C000781C0190019800F0CFFC01983100491E5E
:1028D000C9B2380000F0A4FFA119491E0978C0B29E
:1028E000884214D1A0788006800EA0700120617803
:1028F00002000A4092494B7BFE241C4022434A734B
:102900000100904A117005490D700549087068462C
:1029100000780649087058E35C3B0008CD3C00088D
:10292000CE3C0008B02B0008AE3C0008CC3C0008B0
:10293000603C00081D2E3BD1002C39D0A019801E10
:1029400000786946087080480078694609788842AE
:1029500005D3684600787C490978884224D21B2236
:10296000611C781C0190019800F07EFC01983100F8
:10297000491EC9B2380000F053FFA119491E097859
:10298000C0B2884210D11A22611C704C200000F0A5
:102990006BFC012001006E4A11700100694A117040
:1029A0006C490D706C49087068460078664908707B
:1029B0000BE3042E3FD1002C3DD0A019801E0078DF
:1029C000694608706048007869460978884205D3EE
:1029D000684600785C490978884228D20222611C46
:1029E000781C0190019800F03FFC01983100491ECD
:1029F000C9B2380000F014FFA119491E0978C0B20D
:102A0000884214D1A0788006800EA07001206178E1
:102A100002000A404A498B7BFE241C4022438A73F1
:102A200001004E4A11704B490D704B4908706846C1
:102A3000007845490870C8E21D2E3BD1002C39D0E2
:102A4000A019801E0078694608703F4800786946E2
:102A50000978884205D3684600783B49097888425E
:102A600024D21B22611C781C0190019800F0FCFB11
:102A700001983100491EC9B2380000F0D1FEA119F9
:102A8000491E0978C0B2884210D11A22611CB64C86
:102A9000200000F0E9FB01200100B44A11700100A0
:102AA0002E4A11702B490D702B490870684600782A
:102AB0002549087089E2042E3FD1002C3DD0A01991
:102AC000801E0078694608701F48007869460978BA
:102AD000884205D3684600781B490978884228D285
:102AE0000222611C781C0190019800F0BDFB019846
:102AF0003100491EC9B2380000F092FEA119491EEA
:102B00000978C0B2884214D1A0788006800EA070E7
:102B10000120617802000A400949CB7BFE241C4059
:102B20002243CA730100924A11700A490D700A4982
:102B30000870684600780449087046E2B12B000826
:102B400044350008BE3C0008CC3C0008803A000830
:102B5000BF3C0008CD3C0008CE3C0008C03C00084B
:102B60001D2E3BD1002C39D0A019801E007869465B
:102B700008708048007869460978884205D368461D
:102B800000787C490978884224D21B22611C781C79
:102B90000190019800F068FB01983100491EC9B20C
:102BA000380000F03DFEA119491E0978C0B28842E4
:102BB00010D11A22611C704C200000F055FB01203E
:102BC00001006E4A11700100694A11706C490D7064
:102BD0006C4908706846007866490870F5E1042E73
:102BE0003FD1002C3DD0A019801E007869460870A6
:102BF0006048007869460978884205D368460078BD
:102C00005C490978884228D20222611C781C019014
:102C1000019800F029FB01983100491EC9B2380023
:102C200000F0FEFDA119491E0978C0B2884214D1F6
:102C3000A0788006800EA0700120617802000A4012
:102C4000CD490B7CFE241C4022430A7401004E4AED
:102C500011704B490D704B49087068460078454922
:102C60000870B2E1062E3BD1002C39D0A019801E8D
:102C70000078694608703F480078694609788842BC
:102C800005D3684600783B490978884224D204225B
:102C9000611C781C0190019800F0E6FA019831005F
:102CA000491EC9B2380000F0BBFDA119491E0978C0
:102CB000C0B2884210D10322611CCC4C200000F02D
:102CC000D3FA01200100CA4A117001002E4A117086
:102CD0002B490D702B49087068460078254908700B
:102CE00073E1042E3FD1002C3DD0A019801E007846
:102CF000694608701F48007869460978884205D3FC
:102D0000684600781B490978884228D20222611C53
:102D1000781C0190019800F0A7FA01983100491E33
:102D2000C9B2380000F07CFDA119491E0978C0B273
:102D3000884214D1A0788006800EA07001206178AE
:102D400002000A408C494B7CFE241C4022434A74FA
:102D50000100AD4A11700A490D700A4908706846B1
:102D600000780449087030E19C3A0008C13C000832
:102D7000C23C0008CC3C0008B83A0008C33C00083C
:102D8000CD3C0008CE3C0008C43C00081D2E3BD1C1
:102D9000002C39D0A019801E007869460870A4481C
:102DA000007869460978884205D368460078A049CA
:102DB0000978884224D21B22611C781C019001985A
:102DC00000F052FA01983100491EC9B2380000F0F3
:102DD00027FDA119491E0978C0B2884210D11A22D4
:102DE000611C944C200000F03FFA01200100924A3F
:102DF00011700100844A117090490D70904908705B
:102E0000684600788A490870DFE0042E3FD1002C24
:102E10003DD0A019801E007869460870844800786B
:102E200069460978884205D3684600788049097860
:102E3000884228D20222611C781C0190019800F07F
:102E400013FA01983100491EC9B2380000F0E8FCBD
:102E5000A119491E0978C0B2884214D1A078800611
:102E6000800EA0700120617802000A4042498B7CEC
:102E7000FE241C4022438A740100724A11706F497B
:102E80000D706F49087068460078694908709CE0C9
:102E90001D2E3BD1002C39D0A019801E0078694628
:102EA00008706348007869460978884205D3684607
:102EB00000785F490978884224D21B22611C781C63
:102EC0000190019800F0D0F901983100491EC9B273
:102ED000380000F0A5FCA119491E0978C0B288424B
:102EE00010D11A22611C584C200000F0BDF90120BD
:102EF0000100564A11700100524A11704F490D707D
:102F00004F49087068460078494908705DE0042E12
:102F10003FD1002C3DD0A019801E00786946087072
:102F20004348007869460978884205D368460078A6
:102F30003F490978884228D20222611C781C0190FE
:102F4000019800F091F901983100491EC9B238008A
:102F500000F066FCA119491E0978C0B2884214D15C
:102F600060788007800F60700120FDF703FA01266A
:102F70003200611C364C01E044350008200000F0AE
:102F800073F92E4805702E48067068460078284967
:102F900008701AE000200290207A019020790090B9
:102FA000E378A2786178D22000F0F0FC0DE02000F8
:102FB00009300290207A019020790090E378A2787D
:102FC0006178D22000F0E2FCFFE7F7BD21480078ED
:102FD00070472049087070471F49087070471F49A3
:102FE000087070471D48007870470000D83B000803
:102FF000C53C00081A49087070471A4908707047A4
:10300000194AC0B211547047C63C00081649C0B2F4
:10301000085C70471548007870471549087070477C
:103020001449087070471449087070470000000088
:10303000CC3C0008D43A0008C73C0008CD3C00084E
:10304000CE3C0008C83C0008F03A0008C93C000823
:10305000AF3C0008B23C0008D33C0008D03C00085C
:10306000D13C0008D43C000818390008B12B0008F6
:10307000B22B0008D53C0008D63C00081206130A03
:103080001A43130C1A4300BF094205D0830707D027
:103090000270401C491EF9D1704700000022FFE772
:1030A0001300103906D330B41400150010393CC099
:1030B000FCD230BC490700D30CC000D504C0890045
:1030C00002D30280801C002900D50270704703558E
:1030D00031B48B0707D00B780370002B20D0401C35
:1030E000491C8B07F7D1164CE501830722D104C98F
:1030F000131B93432B4205D104C004C9131B9343F4
:103100002B42F9D0FF231A42027009D0120A1A4248
:10311000427005D0120A1A42827001D0120AC2709F
:1031200031BC70470270120A4270120A8270120A91
:10313000C270001D04C9131B93432B42F2D0E1E778
:103140000101010180B5002000F021FE01BD10B594
:10315000040000200121200000F037FE01212000A2
:1031600000F06BFEC0B210BDFEB584B0070003973F
:1031700004988008029006988008019005980090B5
:103180000026300030003000300030003800FFF7FB
:10319000DEFF3C0035000BE02800069900F077FBCD
:1031A000012205984118200000F08AFE241D2D1DE3
:1031B000049838188442EFD3340013E030000D49EE
:1031C00008700EE02000019900F061FB0398A20056
:1031D0008058009A890051588842EFD10120054952
:1031E0000870641C02988442ECD30248007807B04F
:1031F000F0BD00009F3C0008F8B500908E089C08C8
:1032000017000025290029002900012100F015FEE2
:10321000C0B201280CD009E02800210000F037FBE3
:103220000098AA008058890078506D1CB542F3D3ED
:10323000F1BD047370B4103A03D378C9103A78C062
:10324000FBD2530701D318C918C001D508C908C05B
:10325000D20704D30B880380891C801C002A01D567
:103260000B78037070BC70478B0701D18307E1D0E6
:10327000124205D00B78491C0370401C521EF9D134
:1032800070470500822189004058C005C00D704775
:1032900082218900415808000004C00F704738B5EA
:1032A00004002000FFF7EEFF05002000FFF7F0FF0D
:1032B0002818002801D1012000E00020C0B232BD52
:1032C0000168802212060A430260704780B500F050
:1032D000FEFE01BD80B5FFF7E2FF02BD38B5040078
:1032E0000025280028002000C0B201F035F8002891
:1032F00007D04649E4B23C2254430D192860291DE9
:10330000C160280032BDFEB500210F000478467868
:103310008278C5783E4803C86B4603C3083B10005B
:10332000C0B2FF2809D008206946487069461000DD
:10333000C0B201F0AAFB384307022800C0B2FF2840
:1033400009D006206946487069462800C0B201F0DD
:103350009CFB384307023000C0B2FF280BD0082086
:10336000694648703D0069463000C0B201F08DFBEF
:103370002F00384307022000C0B2FF2809D00620E2
:103380006946487069462000C0B201F07EFB3843B0
:103390000700FF20801C3840002801D0012000E0F9
:1033A0000620C0B2FEBD80B5C90001F066F802BDBE
:1033B000F0B593B005000C0016484C2631000022F1
:1033C0006F463800FFF75AFE32004A496E46300019
:1033D000FFF74AFF607A0290207A0590A07A049065
:1033E0002868006801F002FE2A1D69462868006806
:1033F00001F05AFC002804D161682868FFF7D3FF68
:1034000000E00420C0B213B0F0BD00007C2E000824
:10341000281602100160AA0038B50C00C0B2FFF7F0
:103420005DFF0500002D01D0002C01D104200AE031
:103430002000FFF768FF012804D121002800FFF7D2
:10344000B7FF00E00420C0B232BD10B50C00C0B21E
:10345000FFF744FF002816D02100C9B2012903D08C
:103460002100C9B200290ED1E4B2012C04D10068B8
:103470000068FFF725FF04E0011D0068006801F007
:10348000E5FD012000E00420C0B210BD0CB470B511
:103490000D00C0B2FFF722FF040000263000002C10
:1034A00021D02A0004AB144D8021280001F074FFC4
:1034B00003E0012001F090FF761C300080B20B2861
:1034C00005D220680068FFF705FF0128F1D1B6B2E8
:1034D0000A2E01D3022007E0290020680068FFF7C8
:1034E000F5FE012000E00420C0B2039970BC03B0D7
:1034F00008470000B01102109C36000870B5A14BBF
:103500001C78002C09D101200100197002219E4A6B
:1035100011700021B04A11802EE09B4C03002078EE
:10352000012814D100252800AB490E8892B296429A
:1035300004D30220207001200D801DE0DBB2012B9E
:1035400003D10A88521C0A8016E00D8014E0012580
:103550002800A14A168889B28E4204D32570002122
:103560000800118008E0DBB2002B03D11188491C50
:10357000118001E000211180C0B270BD10B40100C3
:10358000964A974B080080B21C88001914880019CD
:1035900054880019801019805388138093885380B1
:1035A000918080B210BC704730B58E4C2578002DCC
:1035B00005D10120207000208B49087037E0DBB274
:1035C000012B20D1130004009BB2A4B2A34209D363
:1035D00003000C009BB2A4B2A34203D30120824992
:1035E000087024E0030092B29BB29A4203D20220F8
:1035F0007D4908701BE080B289B2884217D203204F
:103600007949087013E0030092B29BB29A4203D248
:103610000220754908700AE080B289B2884203D25C
:1036200003207149087002E003206F4908706E485A
:10363000007830BD38B56D4D2900732001F069FA6E
:103640006B4C142214212878FFF758FF2070207843
:10365000002815D10020FFF7D9FC010001242143E7
:10366000C9B20020FFF7CCFC624D287800280AD1AF
:1036700061480168002906D0006880472C7002E08C
:1036800000205C49087031BD7CB50600002425008F
:103690002000694608706946732001F03AFA6846CE
:1036A0000078012804D155480188491C018001E0B7
:1036B0005248048051480188B6B2B14201D3012575
:1036C00004802800C0B276BD00B503000A000020C7
:1036D0009BB24B48584392B26421514300F0D7F853
:1036E0004849088080B200BD38B50B0011000024A5
:1036F00022002200C0B201281CD189B2180080B279
:10370000FFF7E2FF0500FA20C000FFF7BDFF012828
:103710000ED128003C49098880B2884206D33B4834
:103720000088ADB2A84201D3012004E0200002E0ED
:10373000200000E02000C0B232BD80B5344907202F
:1037400001F031FF00223349072001F0CFFF0121B2
:10375000072001F0A8FF0121072001F085FF0322C7
:103760000121072001F0E9FF01BD10B5040001218E
:103770002B2001F0E9F9FFF7E0FF1F48046001206A
:1037800010BD0000A63C0008AE2B000838B50C00A8
:1037900000221100012180B2FFF7F0FE0500280091
:1037A00080B2FDF71CF8ADB215486843A4B264219D
:1037B000614300F06CF8134908800D490B78DBB2C7
:1037C00015490A881549098880B2FFF7EDFEC0B295
:1037D00032BD0C4800887047503C0008883B000808
:1037E000523C0008A73C0008A83C0008AA3C00087E
:1037F000AD2B0008A93C0008D43B00084E3C000853
:10380000821E0000543C0008A22B0008A42B0008D4
:103810006823000835360110A02B00089E2B0008F5
:1038200030B50C4A0523137000231C001C0009E06E
:103830001C00E4B2055D14786C40074DE4B22C5DC9
:1038400014705B1C1C000D00E4B2EDB2AC42EFD36F
:10385000107830BD9B3C0008680C0210F44600282C
:1038600004D4494200F013F8404260474042002926
:1038700005D45FD000F00BF840424942604749420E
:1038800000F005F84942604703460B43E6D40022A6
:10389000030A8B420BD203098B4219D243088B4295
:1038A0002ED2411A00D20146524110467047FF22E3
:1038B00009023FD012068B4205D3121209028B4235
:1038C00001D31212090203098B4219D300E0090A3D
:1038D000C3098B4201D3CB01C01A524183098B42E9
:1038E00001D38B01C01A524143098B4201D34B01D2
:1038F000C01A524103098B4201D30B01C01A524135
:10390000C3088B4201D3CB00C01A524183088B42BB
:1039100001D38B00C01A524143088B4201D34B00A4
:10392000C01A5241884200D3401A5241CFD20146B8
:103930001046704708B501F029FF08BD00B5002109
:10394000080006E0FF20934A0B00DBB2D218907308
:10395000491C0800C0B24028F4D300BD8D4908704E
:1039600070478C494870704710B590210022894CEF
:103970002000FFF783FBFFF7E1FF0020FFF7EEFFDA
:103980000020FFF7EEFF10BD83487047F8B5002414
:10399000804C2578002D00D09DE0079D2E00F6B2CA
:1039A000002E00D197E02E00F6B2412E00D392E017
:1039B000069E0700FFB2D22F5FD108980F00FFB21A
:1039C000012F29D1A170E2702371A6602900C9B22C
:1039D000402902D34121617302E02900491C61732F
:1039E0004E216654002108E00A0052B2825C0B00AE
:1039F0005BB2E3184F269A55491C0A0052B22B00BD
:103A00005BB29A42F0DBFFF799FF0120FFF7A6FFB8
:103A10000020FFF7A6FF5EE00F00FFB2032F03D0E8
:103A20000F00FFB2042F56D1A170E2702371A6607F
:103A300021000D310D702A00D2B2412A02D3412259
:103A40000A7000E00D70002108E00A0052B2825CAA
:103A50000B005BB2E3184E269A55491C0A0052B27D
:103A60002B005BB29A42F0DBFFF768FF0120FFF703
:103A700075FF0020FFF775FF2DE0C0B2D0282AD1D6
:103A80000800C0B2012811D1A170E2702371A660B4
:103A9000012060734E2026542573FFF74FFF01204D
:103AA000FFF75CFF0020FFF75CFF14E00800C0B2E6
:103AB000032803D00800C0B204280CD1A170E27022
:103AC0002371A6602573FFF739FF0120FFF746FF3A
:103AD0000020FFF746FFF1BDE0B52E480178002930
:103AE0004DD002293BD04ED2817801290DD1017BE6
:103AF000019101000E310091437B02004E3281683A
:103B0000C9B2007901F0A0FE25E0817803290AD12D
:103B1000017B009103000E33427B01004E3180682F
:103B200001F0E6FE17E0817804290AD1017B0091BB
:103B300003000E33427B01004E31806801F00AFF22
:103B400009E08078022803D10120FFF70AFF02E094
:103B50000120FFF706FF0220FFF700FF19E0417880
:103B6000022905D1FFF7EAFE0020FFF7F7FE05E086
:103B70004078012802D10020FFF7F0FE09E0002084
:103B8000FFF7EFFE05E00020FFF7E8FE0020FFF75B
:103B9000E8FE07BD0C3600081A36000880B562B68C
:103BA00000202B490880FA2040002A4908802A4931
:103BB0000D2002F07BF801210D2002F0BBF801215D
:103BC0000D2002F098F801BDF8B504000D00802624
:103BD0003602280080B2B04212D33500204F387828
:103BE00000280BD10121612000F0AEFF1D496120AA
:103BF00000F04BFF0121612000F0A6FF012038708A
:103C00002700280080B2B0420FD2154C207801283E
:103C100009D11549612000F038FF290089B2380028
:103C2000C0B202F0AAF800202070104800880128D5
:103C300002D10A48058001E0084805800C49380097
:103C4000C0B202F0ACF8F1BD024800887047000035
:103C5000803C00087E3C0008882B00087C3C000863
:103C6000FA3C000830230008382300085A3C0008BA
:103C7000823C000880B589B2C0B202F07EF801BD76
:103C800038B505000C006320FCF7A6FB002805D121
:103C9000210089B22800C0B202F06FF831BD0600E1
:103CA00000B5010009B2002905D40121C006C00EEB
:103CB0008140AB48016000BDF0B5020012B2002A9D
:103CC00018D418227D4B040024B2A408A4001C5967
:103CD000FF250600F6001640B540AC438901C9B285
:103CE0000500ED002A409140214300B28008800089
:103CF00019501CE00F229D4C182503001BB21340E5
:103D0000083B9B089B00060036B23240083A9208F6
:103D10009200A258FF260700FF002F40BE40B2438A
:103D20008901C9B2C0000540A9401143E150F0BD6E
:103D300000B58F48012102680A43026002680A4008
:103D4000002AFBD100BD8B48016801220A430260B2
:103D500070478948016801220A4302607047F8B53C
:103D6000684602F0F9F800280AD018227D497E48FA
:103D700002F08CF9422081490860002001F048FBE4
:103D800001207F490870FFF7D3FF05B000BD80B563
:103D9000C0B201280ED103217A4802F015F903219F
:103DA0000320FFF789FF0320FFF77AFF0120764900
:103DB000087002E0002074490870FFF7C4FFFFF7A5
:103DC000C8FF01206E49087001BD3EB504000D001A
:103DD0006E4803C86A4603C2083A2800C0B20028E9
:103DE00011D16948007801280AD018225D495E483F
:103DF00002F04CF98B2061490860002001F008FBBB
:103E000000205F490870684601210171002141715D
:103E100000942A00D2B26946002002F035FB002847
:103E20000AD018224F49504802F030F995205349E2
:103E30000860002001F0ECFA37BD3EB505000C002B
:103E4000280002F025FA00280AD0182245494648E1
:103E500002F01CF9AB2049490860002001F0D8FAB3
:103E60002000C0B2002811D14748007801280AD0AC
:103E700018223C493C4802F009F9AF203F4908604C
:103E8000002001F0C5FA00203D4908700095280087
:103E900002F03AFA002801D0202001E080208000C2
:103EA00001902200D2B26946002002F055FB0028A2
:103EB00001D1012000E000203EBD000000E400E050
:103EC0007FB505000E001400280002F0E1F900287B
:103ED0000AD018222349244802F0D8F8D5202749CF
:103EE0000860002001F094FA68461021FFF7D6F828
:103EF0002000C0B2002811D12348007801280AD040
:103F000018221849184802F0C1F8DC201B49086043
:103F1000002001F07DFA002019490870012168464F
:103F20000A0002720A00427202228272C1720021E9
:103F30000173009501962200D2B26946002002F07A
:103F40004FF900280AD018220649074802F09EF8C7
:103F5000EB200A490860002001F05AFA7FBD0000FA
:103F600000E100E048120210243B00081CED00E0D4
:103F70000800244000F4244000F52440C43B00081D
:103F80009C3C00085F3D01109D3C0008F0150210AC
:103F9000D021890040587047C22189004058C0058F
:103FA000C00D704790229200815070478221890095
:103FB0004058C005C00D704700B50068800B8007F1
:103FC000800F002801D1802000E0402000BD00B516
:103FD000C02189004058C006C00E082801D2012027
:103FE00000E00020C0B200BD00B58021890040582B
:103FF000C006C00E082801D2012000E00020C0B297
:1040000000BDF8B504000D0016002000FFF7DFFF2B
:10401000002809D02F000025B54210D22000FFF75C
:10402000B7FF78556D1CF7E72F00002505E020004D
:10403000FFF7AEFF690078526D1CB542F7D3F1BDB2
:10404000F8B507000D0016003800FFF7A5FF0400C3
:10405000A64200D23400290022003800FFF7D1FF29
:104060002000F2BDF8B504000D0016002000FFF797
:10407000BBFF002809D02F000025B54210D2795D82
:104080002000FFF78FFF6D1CF7E72F00002505E0EC
:104090006800395A2000FFF785FF6D1CB542F7D341
:1040A000F1BDF8B507000D0016003800FFF784FFDA
:1040B00004003800FFF77AFF241AA64200D2340029
:1040C000290022003800FFF7CDFF2000F2BDF8B52F
:1040D00004000F0000252000FFF76EFF060009E036
:1040E0002000FFF763FF8642FAD0795D2000FFF7DA
:1040F00059FF6D1C785D0028F2D1F1BD70B5060046
:104100000C00150004E021003000FFF74BFF6D1E8E
:10411000002DF8D170BDF8B507000D00160038006D
:10412000FFF74AFF04003800FFF740FF241AA642B9
:1041300000D23400290022003800FFF7DFFF200002
:10414000F2BD000000B5010009B2002905D401212B
:10415000C006C00E8140A148016000BD00B501004D
:1041600009B2002905D40121C006C00E81409C4837
:10417000016000BDF0B5020012B2002A18D4182266
:10418000984B040024B2A408A4001C59FF25060083
:10419000F6001640B540AC438901C9B20500ED00F8
:1041A0002A409140214300B28008800019501CE051
:1041B0000F228D4C182503001BB21340083B9B08AF
:1041C0009B00060036B23240083A92089200A2588C
:1041D000FF260700FF002F40BE40B2438901C9B24D
:1041E000C0000540A9401143E150F0BD00B5C0B288
:1041F000002804D0012808D003280BD00FE0202984
:1042000001D3012000E0002000BD102901D30120CE
:10421000FAE7F8E7082901D30120F5E7F3E70120E1
:10422000F2E7F8B505000C0017001E002100280079
:10423000C0B2FFF7DBFF012801D101201FE02800F9
:10424000C0B202281ED180204002874218D2202E00
:1042500016D2B048A10041180B68AF4A1A403B0281
:10426000AE4D1D4015430D60A10040180168F822B5
:104270009143F200F82313400B4303600020F2BD8A
:104280000120FCE7EDB2032D1AD1802040048742C3
:1042900014D2202E12D2BB48A10041180A68D2B213
:1042A0003B0213430B60A10040180168F8229143C0
:1042B000F200F82313400B430360DFE70120DEE741
:1042C0000120DCE770B505000C001600310020006D
:1042D000C0B2FFF78BFF012801D1012014E0AA48EA
:1042E0002900C9B289004158A84A0A40E4B2230211
:1042F000C021890019401143FF229143F2B20A43C1
:10430000EDB2A9004250002070BD38B505000C0088
:1043100021002800C0B2FFF769FF012801D1012068
:1043200019E09B480168802212060A43C0218904D3
:104330001143FF2212040A43944B1340EDB22A02A8
:10434000C021890011401943FF229143E2B20A4380
:1043500002600068002032BD00B50022110001009B
:10436000C9B2082901D3100008E08A49C0B2182355
:10437000584308180168002900D1100000BD00B59D
:10438000002211000100C9B2382901D3100008E051
:104390008149C0B21423584308180168002900D18C
:1043A000100000BD00B5FF20002100E0491C0A00FC
:1043B000D2B2082A10D2794A0B00DBB25B00D318C4
:1043C0005B78002BF2D101200B00DBB25B00D3182D
:1043D0005870C9B24800105CC0B200BD00E100E0F6
:1043E00080E200E000E400E01CED00E0D0B5060053
:1043F0000F0010001900049C4901C20E1143400136
:1044000032003B0002F00EF9C306DB0E4009020544
:10441000120D521E2100C9B20320FFF702FFD0BDCA
:10442000FEB5060014001D0000273800FFF7BAFF94
:104430006946087168460079FF2802D030000028DC
:1044400001D1380017E008A9C0C9083969460A79BE
:1044500003210079FFF736FF6846007900903200AB
:104460003B0020002900FFF7C1FF684601790320C7
:10447000FFF74BFF0120C0B2FEBD38B584B0050088
:104480000C0000200020002102AA03C2083A02A862
:1044900002F090FD002809D1220002A803C8009074
:1044A000019100232800FFF7BBFF00E00420C0B209
:1044B00005B030BD3EB50D0014000021C0B2FFF7BD
:1044C0005EFF0200364803C86B4603C3083B002A60
:1044D0001CD02800002819D06846D188018095603A
:1044E000D46001241474684602F096FD2D490098AA
:1044F00000B202F0B0FD03210620FFF73BFE0620CC
:10450000FFF72CFE0620FFF71DFE00E0042420002C
:10451000C0B23EBD00180040FF0000FF00FFFF00DA
:104520001CB502000B0000201F4803C86C4603C4E2
:10453000083C002A23D01800C0B2022807D0180077
:10454000C0B2042803D01800C0B2062817D11375D2
:104550006846D1880180684602F05EFD13490098E4
:1045600000B202F078FD03210520FFF703FE0520CD
:10457000FFF7F4FD0520FFF7E5FD012000E0042032
:10458000C0B216BD001C0040000C0040FFFCFFFF45
:1045900000040040B01A0008701B0008D01F00087B
:1045A00000160210B345011008160210E948011068
:1045B000704710B500242000062002F06EFD00B206
:1045C00089214900401A00D187E0401E00D189E0CE
:1045D000401E00D18BE0801E00D18DE0401E00D136
:1045E0008FE0401E00D191E0401E00D193E0801E7C
:1045F00000D195E0401E00D197E0401E00D199E027
:10460000401E00D19BE0401E00D19DE0401E00D125
:104610009FE0401E00D1A1E0401E00D1A3E0401E5B
:1046200000D1A5E0401E00D1A7E0401E00D1A9E0C6
:10463000401E00D1ABE0401E00D1ADE0401E00D1D5
:10464000AFE0401E00D1B1E0401E00D1B3E0401EFB
:1046500000D1B5E0401E00D1B7E0C01F00D1B9E0E5
:10466000401E00D1BBE0801E00D1BDE0401E00D145
:10467000BFE0401E00D1C1E0401E00D1C3E0401E9B
:1046800000D1C5E0401E00D1C7E0401E00D1C9E006
:10469000801E00D1CBE0401E00D1CDE0401E00D1F5
:1046A000CFE0401E00D1D1E0401E00D1D3E0401E3B
:1046B00000D1D5E0401E00D1D7E0401E00D1D9E0A6
:1046C000401E00D1DBE0401E00D1DDE0401E00D1E5
:1046D000DFE0401E00D1E1E0E5E00020FFF74FFE03
:1046E0000400E0E00120FFF74AFE0400DBE00220C6
:1046F000FFF745FE0400D6E00420FFF740FE04006B
:10470000D1E00520FFF73BFE0400CCE00620FFF7D8
:1047100036FE0400C7E00720FFF731FE0400C2E0C8
:104720000920FFF72CFE0400BDE00A20FFF727FE5A
:104730000400B8E00B20FFF722FE0400B3E00C20D9
:10474000FFF71DFE0400AEE00D20FFF718FE040089
:10475000A9E00E20FFF713FE0400A4E00F20FFF7EE
:104760000EFE04009FE01020FFF709FE04009AE00F
:104770001120FFF704FE040095E01220FFF7FFFD73
:10478000040090E01320FFF7FAFD04008BE01420F2
:10479000FFF7F5FD040086E01520FFF7F0FD0400AB
:1047A00081E01620FFF7EBFD04007CE01720FFF707
:1047B000E6FD040077E01820FFF7E1FD040072E059
:1047C0001920FFF7DCFD04006DE01A20FFF7D7FD8C
:1047D000040068E02120FFF7D2FD040063E02220FE
:1047E000FFF7CDFD04005EE02420FFF7C8FD0400C4
:1047F00059E02520FFF7C3FD040054E02620FFF711
:10480000BEFD04004FE02720FFF7B9FD04004AE099
:104810002820FFF7B4FD040045E02920FFF7AFFD95
:10482000040040E02A20FFF7AAFD04003BE02C2012
:10483000FFF7A5FD040036E02D20FFF7A0FD0400E2
:1048400031E02E20FFF79BFD04002CE02F20FFF726
:1048500096FD040027E03020FFF791FD040022E0E0
:104860003120FFF78CFD04001DE03220FFF787FDAB
:10487000040018E03320FFF782FD040013E0342029
:10488000FFF77DFD04000EE03520FFF778FD040002
:1048900009E03620FFF773FD040004E03720FFF73E
:1048A0006EFD0400FFE7002C1CD0207C012819D1EC
:1048B000206802F063FD002806D0E068A168884700
:1048C000206802F069FD0DE0206802F052FD00282A
:1048D00006D0E068A1688847206802F055FD01E035
:1048E000FFF766FE10BD704710B5002420000520BC
:1048F00002F0D3FB00B211280ED04D2811D04E2863
:1049000028D04F2812D0502815D0512818D052281E
:1049100025D0532819D027E00020FFF71DFD040003
:1049200022E00120FFF718FD04001DE00320FFF73F
:1049300013FD040018E00420FFF70EFD040013E04F
:104940000520FFF709FD04000EE00720FFF704FD36
:10495000040009E00220FFF7FFFC040004E0062049
:10496000FFF7FAFC0400FFE7002C18D0207D022896
:1049700004D0042807D006280AD00EE0E168206899
:1049800000F096FB0BE0A168206803F0ADF906E0AB
:104990002169206803F0D5FE01E0FFF7A4FF10BDF8
:1049A0000269CA401000C007C00F704700B5002A56
:1049B00003D101228A40426002E001228A408260E3
:1049C00000BD01228A40C260704700B5182803D29A
:1049D000C0010349401801E00020C04300BD0000B1
:1049E0000000314000B50178002902D0017801298A
:1049F00048D14178002926D04178022923D0417836
:104A0000032920D0417804291DD0417805291AD0E6
:104A10004178062917D04178072914D04178082910
:104A200011D041780A290ED041780B290BD041785A
:104A30000C2908D041780D2905D041780E2902D0E3
:104A400041780F291CD1C178002902D0C1780129F1
:104A500014D10179002902D0017901290CD14179C1
:104A6000002905D04179022902D04079032801D1DB
:104A7000012008E0042006E0042004E0042002E015
:104A8000042000E00420C0B200BDF8B58EB00500DF
:104A90000C00002C39D02000FFF7A4FF012832D1F0
:104AA0002800C0B2C0086907490F6A461170C0B239
:104AB000FFF78BFF05000020C043854221D0342141
:104AC0000026320001AF3800FEF7D8FA029601A89E
:104AD00006722178019161780291A1780172E078E3
:104AE0000690207907906079089001AA68460178BD
:104AF000280003F0D8FF002801D1012006E004209F
:104B000004E0042002E0042000E00420C0B20FB062
:104B1000F0BD38B502000C001000C0B2C008550747
:104B20006D0FC0B2FFF751FF0021C943884208D082
:104B3000002C06D02900C9B2FFF732FF20700120F7
:104B400000E00420C0B232BD38B502000C001000F5
:104B5000C0B2C00855076D0FC0B2FFF736FF002185
:104B6000C94388420FD02100C9B2002903D02100D7
:104B7000C9B2012907D12200D2B22900C9B2FFF778
:104B800015FF012000E00420C0B232BD10B50100C5
:104B90000800C0B2C0084C07640FC0B2FFF715FF91
:104BA0000021C943884205D0E4B22100FFF709FF84
:104BB000012000E00420C0B210BDE402D021890031
:104BC00040587047C122920080180268FF239A4320
:104BD000C9B2114301607047C22189004058C00525
:104BE000C00D704790229200815070478221890049
:104BF0004058C005C00D7047E0210901405870477A
:104C00000B4A815070470B4940587047FC221201F3
:104C10008150FC21090140587047074A8150704774
:104C2000054940587047054940587047000000004A
:104C3000C80F0000CC0F0000880F00008C0F000090
:104C4000F82212018150F82109014058704700B53F
:104C50000068800B8007800F002801D1802000E0D1
:104C6000402000BD00B5C02189004058C006C00EDC
:104C7000082801D2012000E00020C0B200BD00B52C
:104C8000802189004058C006C00E082801D20120AA
:104C900000E00020C0B200BD80B5FFF7D1F902BD31
:104CA00080B5FFF7FEF902BDF4B588B0C14AC24B2A
:104CB0001B68C24C2468C24D2D68C24E36680696E9
:104CC000C14E36680596C14E36680496C04E3668A9
:104CD0000396C04E36680296BF4E36680196BF4EA8
:104CE00036680096002800D161E1002900D15EE11C
:104CF0000A68022A05D126228A5C002A01D10022F4
:104D000001E04A68521E24268E5D002E01D0012645
:104D100000E00026B24F1F40330480267602334065
:104D20003B43B04E1E4007960F26079B0F27BB4301
:104D300032401A43AC4B1A408027BF041743076028
:104D40000A789207920F23401406C0229204224050
:104D50001A43026425228A5C002A01D0012200E065
:104D6000002240239D43920140231A402A43CB7ED8
:104D7000002B01D0012300E00023B04C14409A0224
:104D80008023DB001A4022434B7E002B01D00123FD
:104D900000E00023AA4C14401D028022520015405E
:104DA00025438A7E002A01D0012400E000248022CD
:104DB0009200A44B1D40640214402C438D6B6D1E69
:104DC0002E40A14D25403604F024240334402C43CA
:104DD0000D696D1E6D076D0F0726B4432543012431
:104DE0004E6926401027BD43360110273E402E4312
:104DF0004D696D0825402027BE436D0120273D40A9
:104E0000354385640D7B002D01D0260000E000268F
:104E10008B4D069F2F40BC463702802676003740D8
:104E2000664637430E7E002E01D0260000E00026A5
:104E30003B40760232401A431F238E68761E1E4086
:104E40001F27BA431643C022920086500A7FD7B26A
:104E5000059AFF26B243174320228A5CD6B2824AC3
:104E60003A403704FF2636043E401643C4229200DF
:104E7000865027228A5C002A01D0260000E0002606
:104E8000049A2A40360280277F003E4016430A6972
:104E9000521E5207520F0727BE4332434E69264027
:104EA0001027BA43360110273E4016434A6952087C
:104EB00022402027BE43520120273A403243426419
:104EC0000A7B002A01D0220000E00022039E354028
:104ED00016028022520016402E438D686D1E1A0065
:104EE0002A401F239E4332430B68012B01D1260029
:104EF00000E0002680235B02394D2A4036041E4024
:104F000016438022920086503C228A5CD2B2029ED6
:104F1000FF27BE433243C126B600825128228A5C55
:104F2000002A01D0260000E00026019F4F4A3A40A7
:104F300077068026B60437401743CA6A012A01D192
:104F4000260000E000264A4A3A40360680277F04C1
:104F50003E4016434A6B012A00D00024089A35408F
:104F6000240423402B4330240C5DE4B2FF25AB43E3
:104F70001C4304654423CB5CDBB2009CFF25AC439F
:104F800023438124A40003518B6C3A4C0351096CD8
:104F9000394BC150002A09D0002050601060906049
:104FA000D0601062D0621063344850630022100059
:104FB00009B0F0BD0160AA008C1602109016021014
:104FC00094160210981602109C160210A0160210D9
:104FD000A4160210A8160210AC160210B016021089
:104FE000FFFFFEFFFF3FFFFFFFFFFFFC24490160C3
:104FF000C0218903016400218164FF220832C0239B
:105000009B00C250C1239B00C150C4239B00C150D0
:10501000416480239B00C25081229200815001652F
:10502000184A8150184A8150134A8150114A8150C0
:10503000164A81501D4A815070470000FFFBFFFF58
:10504000FFFEFFFFFFFDFFFFFFFFF0FF00B502685F
:10505000520052080260002904D000204860086015
:105060000862C86200BD0000FFFF00FFFFFFFFFDF8
:10507000FFFFFFFE880F0000C80F0000EFCDAB0060
:105080000F000003C80E0000880E0000080F00008B
:1050900000B508694A69904202D34969401A03E0A1
:1050A000CA6880184969401A00BD0000480F000016
:1050B00070B504000D002000FFF79EFD00073AD5F3
:1050C0002000FFF7A0FDC8218900014000290BD076
:1050D0006868084368602000FFF798FD286B002887
:1050E00002D01020296B8847802636012000FFF768
:1050F0008AFD3040002806D068683043686031007F
:105100002000FFF783FD2000FFF77DFDC00712D5CB
:10511000E869002804D02900200000F048F806E0E3
:10512000A868002803D02900200000F08CF8012195
:105130002000FFF76BFD2000FFF75EFD400735D52F
:105140002000FFF770FDA021C900014000290BD00D
:105150002868084328602000FFF772FD286B0028AC
:1051600002D02020296B88472000FFF75CFDC00794
:1051700007D52900200000F0B4F801212000FFF736
:105180005FFD2000FFF74FFD80050FD500212000B7
:10519000FFF743FD28680121884328600020E8626A
:1051A000286B002802D00220296B884770BDF8B513
:1051B00007000C003800FFF74AFD4508E269A169C5
:1051C0003800FFF769FD0600206A80192062E06957
:1051D000801BE061E069002821D1A06800280FD081
:1051E000E068A84202D36D1E290001E0E168491E73
:1051F0003800FFF7E7FC01213800FFF701FD03E06D
:1052000000213800FFF7FCFC6068012188436060E2
:10521000206B002816D00420216B884712E0A0697B
:1052200000903800FFF71EFD002800D1760000989E
:105230008019A061E069A84204D2E169491E3800E2
:10524000FFF7C0FCF1BDF1B582B00F000298FFF787
:10525000FEFC400800900298FFF7BEFC05003C6988
:105260000FE0B868610046520AE00298FFF7A6FC1A
:1052700006000298FFF7F6FC0028F2D0B868065541
:105280006D1E002D1AD0641CF868844200D10024E1
:1052900078698442E9D1386B002802D00820396B44
:1052A000884778698442E0D100210298FFF7A8FC82
:1052B000002C01D0641E01E0FC68641E3C61FC68A7
:1052C00039000298FFF7E4FE211A0098814207D2C4
:1052D000002901D0491E00E000210298FFF772FC6E
:1052E000F7BDF8B507000C003800FFF7B0FC06006A
:1052F0003800FFF7C4FC0500A06A022814D3606AD6
:105300000090A06AE062A26A521E616A3800FFF74C
:10531000C7FCA16A091AA1622900C9B2002900D1FB
:1053200040000099081860623800FFF75FFC864271
:1053300030D0A06A01282DD10020A062EDB2002D4E
:1053400002D0606A057801E0606A058803F0F8FB26
:10535000060029003800FFF745FC8025AD00290034
:105360003800FFF76DFC300003F0EEFB3800FFF76C
:1053700057FC01218843054329003800FFF74DFC05
:105380002068022101432160206B002802D0012007
:10539000216B8847F1BD34031CB584B0002403940D
:1053A000002902D10194029402E00190491E029169
:1053B000009405AB01A907487844183003F0CCFBF2
:1053C0000199002900D00C70002800D4039806B081
:1053D00010BD00BFDDC0000010B5040005E01B4893
:1053E000006803F0A5FB1A4824181A488442F6D234
:1053F000194800684443200003F09AFB10BD80B5B3
:10540000010089B215480078484303F091FB01BDC3
:1054100000B501BEFEE780B5114A12490B68934200
:1054200010D00A6002684A6042688A608268CA6076
:10543000C2680A6102694A6142698A618269CA6115
:10544000C069086204F025FB01BD0000183C00089B
:105450000080FFFF01800000143C0008FB3C0008B6
:10546000F3F2F1F06839000800B5C0B2002804D0AA
:10547000012808D003280BD00FE0202901D30120F8
:1054800000E0002000BD102901D30120FAE7F8E771
:10549000082901D30120F5E7F3E70120F2E770B511
:1054A00005000C00160021002800C0B2FFF7DCFF49
:1054B000012801D1012012E02800C0B2002811D13A
:1054C000FF2E0DD85D48A100401801685C4A0A40D3
:1054D0003102FF231B020B4013430360002070BD09
:1054E0000120FCE7EDB2012D11D18020400286425F
:1054F0000BD25448A10040180168534A0A403102B7
:10550000524B0B4013430360E8E70120E7E701201B
:10551000E5E770B505000C00160031002000C0B2B0
:10552000FFF7A2FF012801D1012014E0484829001B
:10553000C9B289004158474A0A40E4B22302C02157
:10554000890019401143FF229143F2B20A43EDB2A0
:10555000A9004250002070BD38B505000C002100A4
:105560002800C0B2FFF780FF012801D1012019E017
:1055700039480168802212060A43C0218904114378
:10558000FF2212040A43334B1340EDB22A02C0211A
:10559000890011401943FF229143E2B20A4302609D
:1055A0000068002032BDF0B59BB00F000821012635
:1055B0003100C0B2FEF7E3FE0400002C39D0002F0A
:1055C00037D0022200212079FFF7A3FF234D28784E
:1055D000002815D100200090684601F0EBFC0098EF
:1055E0001F49FEF754F90200521E02210020FFF766
:1055F00056FF02210020FFF7AFFF3000287001E0C6
:10560000300028706822174901AD2800FDF72CFEF4
:105610003868401E01903879039001A9206801F094
:1056200091FD002803D178792074300002E0002039
:1056300000E00420C0B21BB0F0BD0000001000402C
:10564000FF00FFFF00140040FF0000FF00FFFF000D
:10565000000C0040FFFCFFFF00040040A13C0008DC
:1056600040420F002810021010B50C000021C0B2FB
:10567000FEF785FE002813D02100C9B2012903D00E
:105680002100C9B200290BD1E4B2012C03D100687A
:1056900004F001FA02E0006804F003FA012000E0DF
:1056A0000420C0B210BD38B50C000021C0B2FEF716
:1056B00066FE0500002D16D02000C0B2012803D0E0
:1056C0002000C0B200280ED1E4B2012C06D1286817
:1056D00001F043FE286801F035FE02E0286801F081
:1056E00037FE012000E00420C0B232BD80B5C0B258
:1056F000FEF7E0FE02BD80B50021C0B2FEF73FFE1E
:10570000002804D0006801F03FFE012000E00420E2
:10571000C0B202BD80B50821C0B2FEF730FE00283D
:1057200008D0006801F025FE002801D0012002E029
:10573000002000E00420C0B202BD38B50C000021FA
:10574000C0B2FEF71CFE0500002D1CD02000C0B228
:10575000012803D02000C0B2002814D12C74E4B278
:10576000012C07D10620285E01F07FFC286801F09B
:10577000F4FD06E0286801F007FE0620285E01F02F
:105780007EFC012000E00420C0B232BD70473C0026
:1057900080B500202A493A200870392048705020EE
:1057A000C870052004F034FB01202649087001214F
:1057B000052004F06CFB01BD80B5052004F04BFB17
:1057C00000202049087001BD38B584B00024009441
:1057D00001AD2870697002922B721A480078012876
:1057E0000CD16A4601A9052004F0B0FB040020009A
:1057F000C0B2012802D0052004F08CFB2000C0B20A
:1058000005B030BD38B584B00024009401AD2870D7
:10581000697002922B720B48007801280CD16A46FD
:1058200001A9052004F0A2FB04002000C0B2012859
:1058300002D0052004F06EFB2000C0B205B030BDE0
:1058400048230008A23C0008F8B505000E00079F99
:105850003800C0B2002838D02800C0B2522816D173
:1058600055201070DBB23100C9B22800C0B2FFF77A
:10587000ABFF04000520FFF7AFFD3B00DBB2069A4B
:105880003100C9B22800C0B2FFF7BCFF13E0DBB2A1
:105890003100C9B22800C0B2FFF796FF040005200E
:1058A000FFF79AFD3B00DBB2069A3100C9B228002F
:1058B000C0B2FFF7A7FFE4B2002C04D0C0B20028AA
:1058C00001D0012008E0002006E0DBB23100C9B2BF
:1058D0002800C0B2FFF778FFC0B2012803D1012031
:1058E000FEF73FF802E00220FEF73BF8F1BD820030
:1058F000F1B582B0089C002005002500EDB2002D16
:1059000011D00500009308E0029B2E00F6B29B5DCB
:10591000009E2F00FFB2F3556D1C2B002600DBB25A
:10592000F6B2B342F0D31300DBB2002B0ED007E087
:105930000300DBB2CB5C029C0500EDB26355401C5A
:1059400003001400DBB2E4B2A342F1D30120FEF75E
:1059500008F8F7BDFEB505000E001400089A0020F7
:105960001000C0B2002805D0D2B229001F003800B4
:10597000FDF77AFC2000C0B2002825D01548281871
:105980001549884224D26006400E002805D0200028
:10599000C0B2C009401CC001444201968021FF22D0
:1059A0000E4E37003800FDF769FBE4B22200019883
:1059B0000090340000992000FDF756FC802332004F
:1059C00080212800FDF7D0FB0120FDF7CAFFF7BDBD
:1059D000FDE700000040FFEB813F00002437000896
:1059E00000B5C0B2002804D0012808D003280BD08D
:1059F0000FE0202901D3012000E0002000BD102984
:105A000001D30120FAE7F8E7082901D30120F5E7DF
:105A1000F3E70120F2E770B505000C001600210045
:105A20002800C0B2FFF7DCFF012801D1012012E0FD
:105A30002800C0B2002811D1FF2E0DD85948A1006E
:105A400040180168584A0A403102FF231B020B40EC
:105A500013430360002070BD0120FCE7EDB2012D6F
:105A600011D18020400286420BD25048A10040183C
:105A700001684F4A0A4031024E4B0B40134303600A
:105A8000E8E70120E7E70120E5E770B505000C0035
:105A9000160031002000C0B2FFF7A2FF012801D19B
:105AA000012014E044482900C9B289004158434A02
:105AB0000A40E4B22302C021890019401143FF22A9
:105AC0009143F2B20A43EDB2A9004250002070BDEA
:105AD00038B505000C0021002800C0B2FFF780FF98
